:03000000020030CB
:1000300075815F75A0FF75B0FF759000E4F520F540
:1000400034F535F536F530F531F532F533C2A51214
:1000500000B10536E536B4321C7536000534E5349A
:1000600070020535B4100BE535B4270675340075FC
:1000700035001200CF20B209200208D202B200805F
:1000800002C20220B509200308D203B2018002C2D5
:100090000320A70EE4F534F535F536C200C201128F
:1000A00000CFA200B392A4B392A5A201B392A680FE
:1000B0009E7F00783043A00FE690011793F590EFF4
:1000C0009001219352A012010E080FBF04E722AF46
:1000D00034AE351200DF8A308B318C328D33227A88
:1000E00000C3EF94E8F5F0EE94034006FEAFF00A8B
:1000F00080EF7B00C3EF9464F5F0EE94004006FEC1
:10010000AFF00B80EFEF75F00A84FCADF0227C09B4
:100110007BFADBFEDCFA223F065B4F666D7D077FD4
:050120006FFEFDFBF77E
:00000001FF
