:0300000002004CAF
:100008000000E2FBEAF2802C0000E0FBEAF080242A
:10001800E6B50202EBF62200E2B50202EBF222009C
:10002800E0B50202EBF02230F6E0A88220F5D3EA30
:10003800C6F582228B822230F6E6A88220F5D98086
:01004800CFE8
:0F00A500750800750900750A00750B0002004907
:030049000201AD04
:1000B400750D0074F8250D4017750C007406250C99
:1000C4004007E50C04F50C80F3E50D04F50D80E321
:1000D40022750D0074FE250D4017750C007406255D
:1000E4000C4007E50C04F50C80F3E50D04F50D80D8
:1000F400E322D2A0D2A1D2A2D2A3227F00C00712AF
:1001040000F6D007EF2408F9E7FE90030E93F5906C
:10011400EF2F90011A7380068008800A800CC2A019
:10012400800AC2A18006C2A28002C2A3C007120034
:10013400D5D0070FBF040040C422AE82AF83750C34
:10014400E8750D03C007C006120294AC82D006D035
:10015400078C08750C64750D008E828F83C007C0F0
:1001640006120294750C0A750D001202BDAC82D001
:1001740006D0078C09750C0A750D008E828F83C01A
:1001840007C006120294750C0A750D001202BDAC6C
:1001940082D006D0078C0A750C0A750D008E828FEA
:1001A400831202BDAE828E0B227E007F007D007C16
:1001B400007B007A00790075A0FF75B0FF8F90C2B4
:1001C400A5C007C006C005C004C003C002C0011218
:1001D40000FFD001D002D003D004D005D006D00750
:1001E4000DBD320040377D000EBE00010FC3740FF9
:1001F4009E74279F50047E007F008E828F83C007E9
:10020400C006C005C004C003C002C00112013ED034
:1002140001D002D003D004D005D006D00720B210FC
:10022400EA700F7A01EC60047C0080067C01800295
:100234007A0020B510E9700F7901EB60047B00802F
:10024400067B018002790020A72C7E007F007D00C0
:100254007C007B00900000C007C006C005C004C03D
:1002640003C002C00112013ED001D002D003D00469
:10027400D005D006D007EC6006C2A4D2A58004D273
:10028400A4C2A5EB6005C2A60201C5D2A60201C59F
:0A030E003F065B4F666D7D077F6FB1
:100294007A10E4FBFCE58225E0F582E58333F583FF
:1002A400EB33FBEC33FCEB950CF5F0EC950D4006D1
:0902B400FCABF0438201DADD220B
:06007B00E478FFF6D8FD59
:100059007900E94400601B7A00900318780175A0C3
:1000690000E493F2A308B8000205A0D9F4DAF27506
:02007900A0FFE6
:1002BD00E50C450D60467A01E50C25E0F50CE50DE4
:1002CD00334012F50DE582950CE583950D40030A3B
:1002DD0080E6C3E50D13F50DE50C13F50CC3E582B2
:1002ED00950CF5F0E583950D4005F58385F082C3FA
:0D02FD00E50D13F50DE50C13F50CDAE1220B
:100081007800E84400600A790175A000E4F309D81A
:10009100FC7800E84400600C7900900001E4F0A3D2
:0400A100D8FCD9FAB4
:0D004C0075810D12030AE582600302004970
:04030A0075820022D6
:00000001FF
