:0300000002004CAF
:100008000000E2FBEAF2802C0000E0FBEAF080242A
:10001800E6B50202EBF62200E2B50202EBF222009C
:10002800E0B50202EBF02230F6E0A88220F5D3EA30
:10003800C6F582228B822230F6E6A88220F5D98086
:01004800CFE8
:0300A5000200490D
:030049000200C9E9
:1000A80075090074FE2509401775080074062508AF
:1000B8004007E50804F50880F3E50904F50980E33D
:1000C800227F007E0075A0F075B0FF8F90EF75F06D
:1000D80004A4248AFC740135F0FD7B00C2A0C2A1EF
:1000E800C2A2C2A3EB2CF582E43DF583E493FA9017
:1000F800018093F590EB2B900103738006800880B4
:100108000A800CD2A0800AD2A18006D2A28002D294
:10011800A3C007C006C005C004C0031200A8D003CE
:10012800D004D005D006D0070BBB040040AE20B5E4
:100138000FEE700E7E010FEF24FD50067F00800247
:100148007E00EFB40100B39200E43324FF92A4BF11
:100158000103EF8001E4B401009200E43324FF922C
:10016800A5E4BF020104B401009200E43324FF9225
:04017800A60200D506
:100180003F065B4F666D7D077F6F0000000008082B
:060190000808010203044F
:06007B00E478FFF6D8FD59
:100059007900E94400601B7A00900196780175A047
:1000690000E493F2A308B8000205A0D9F4DAF27506
:02007900A0FFE6
:100081007800E84400600A790175A000E4F309D81A
:10009100FC7800E84400600C7900900001E4F0A3D2
:0400A100D8FCD9FAB4
:0D004C0075812012017CE5826003020049ED
:04017C007582002266
:00000001FF
