:0300000002004CAF
:100008000000E2FBEAF2802C0000E0FBEAF080242A
:10001800E6B50202EBF62200E2B50202EBF222009C
:10002800E0B50202EBF02230F6E0A88220F5D3EA30
:10003800C6F582228B822230F6E6A88220F5D98086
:01004800CFE8
:0300A5000200490D
:030049000200D9D9
:1000A800750A007438250A402775090074FE250969
:1000B8004017750800740625084007E50804F50888
:1000C80080F3E50904F50980E3E50A04F50A80D31D
:1000D800227F0075A0FF75B0FF8F90D2A0D2A1D269
:1000E800A2D2A38F060EEE90013E93F590EF2F90CB
:1000F80000FB738006800E8016801EC2A0C2A4D2A8
:10010800A5D2A6801CC2A1D2A4C2A5D2A68012C222
:10011800A2D2A4D2A5C2A68008C2A3C2A4C2A5C264
:10012800A6C0071200A8D0070FEF24FC50AD7F002F
:0201380080A99C
:0A013E003F065B4F666D7D077F6F83
:06007B00E478FFF6D8FD59
:100059007900E94400601B7A00900148780175A095
:1000690000E493F2A308B8000205A0D9F4DAF27506
:02007900A0FFE6
:100081007800E84400600A790175A000E4F309D81A
:10009100FC7800E84400600C7900900001E4F0A3D2
:0400A100D8FCD9FAB4
:0D004C0075810A12013AE582600302004945
:04013A0075820022A8
:00000001FF
