:0300000002004CAF
:100008000000E2FBEAF2802C0000E0FBEAF080242A
:10001800E6B50202EBF62200E2B50202EBF222009C
:10002800E0B50202EBF02230F6E0A88220F5D3EA30
:10003800C6F582228B822230F6E6A88220F5D98086
:01004800CFE8
:0300A5000200490D
:030049000200D8DA
:1000A80075090074F82509401775080074062508B5
:1000B8004007E50804F50880F3E50904F50980E33D
:1000C80022E5826004758200221200A8758201224E
:1000D8007F007E0075A0FF75B0FFA2B2E433F58201
:1000E800C007C0061200C9E582D006D007600F20FD
:1000F800B20CEF60047F0080027F0130B2FDA2B530
:10010800E433F582C007C0061200C9E582D006D0E4
:1001180007600F20B50CEE60047E0080027E01307F
:10012800B5FDA2A7E433F582C007C0061200C9E5F1
:1001380082D006D007600A20A7077F007E0030A77C
:10014800FDEF6006C2A4D2A58004D2A4C2A5EE60C9
:0B01580005C2A60200E2D2A60200E2EF
:06007B00E478FFF6D8FD59
:100059007900E94400601B7A00900167780175A076
:1000690000E493F2A308B8000205A0D9F4DAF27506
:02007900A0FFE6
:100081007800E84400600A790175A000E4F309D81A
:10009100FC7800E84400600C7900900001E4F0A3D2
:0400A100D8FCD9FAB4
:0D004C00758109120163E58260030200491D
:04016300758200227F
:00000001FF
