:0300000002004CAF
:100008000000E2FBEAF2802C0000E0FBEAF080242A
:10001800E6B50202EBF62200E2B50202EBF222009C
:10002800E0B50202EBF02230F6E0A88220F5D3EA30
:10003800C6F582228B822230F6E6A88220F5D98086
:01004800CFE8
:0300A5000200490D
:030049000200CCE6
:1000A800AE82AF837C007D00C3EC9EED9F50147A36
:1000B800787B001ABAFF011BEA4B70F70CBC00E80A
:1000C8000D80E522D290C2909001F41200A8D2903F
:0800D8009001F41200A880EE73
:06007B00E478FFF6D8FD59
:100059007900E94400601B7A009000E4780175A0FA
:1000690000E493F2A308B8000205A0D9F4DAF27506
:02007900A0FFE6
:100081007800E84400600A790175A000E4F309D81A
:10009100FC7800E84400600C7900900001E4F0A3D2
:0400A100D8FCD9FAB4
:0D004C007581071200E0E5826003020049A3
:0400E0007582002203
:00000001FF
