:0300000002004CAF
:100008000000E2FBEAF2802C0000E0FBEAF080242A
:10001800E6B50202EBF62200E2B50202EBF222009C
:10002800E0B50202EBF02230F6E0A88220F5D3EA30
:10003800C6F582228B822230F6E6A88220F5D98086
:01004800CFE8
:0300A5000200490D
:030049000200E8CA
:1000A8005389F0438901758C3C758AB0C28DD28C16
:1000B800308DFDC28CC28D22750832750900120080
:1000C800FAAE82AF838E048F051EBEFF011FEC4D72
:1000D800600DC007C0061200A8D006D00780E6222F
:1000E800C2909001F41200C0D2909001F41200C0A6
:1000F80080EE7A10E4FBFCE58225E0F582E58333A7
:10010800F583EB33FBEC33FCEB9508F5F0EC950944
:0B0118004006FCABF0438201DADD2260
:06007B00E478FFF6D8FD59
:100059007900E94400601B7A00900127780175A0B6
:1000690000E493F2A308B8000205A0D9F4DAF27506
:02007900A0FFE6
:100081007800E84400600A790175A000E4F309D81A
:10009100FC7800E84400600C7900900001E4F0A3D2
:0400A100D8FCD9FAB4
:0D004C00758109120123E58260030200495D
:0401230075820022BF
:00000001FF
