:0400000002006C325C
:03000B000200F3FD
:030013000201A740
:01001B0032B2
:030023000201D502
:100028000000E2FBEAF2802C0000E0FBEAF080240A
:10003800E6B50202EBF62200E2B50202EBF222007C
:10004800E0B50202EBF02230F6E0A88220F5D3EA10
:10005800C6F582228B822230F6E6A88220F5D98066
:01006800CFC8
:1000C500752D0075083F75093F750A3F750B3FE4AF
:1000D500F50CF50DF50EF50FF510F511F512751377
:0E00E50014F514F515F516F52BF52C0200692F
:030069000206CDBF
:1000F300C0E0C0F0C082C083C007C006C001C0D04A
:1001030075D000758CFC758A66D2A0D2A1D2A2D21A
:10011300A3E52D2408F98790E52D24FC4024E52D43
:1001230075F003A490012B7302013702013B020116
:100133003F020143C2A0800AC2A18006C2A280027C
:10014300C2A3052DE52D24FC5003752D00E5106099
:1001530039AE0CAF0D74012EF50CE43FF50DC3E57C
:100163000C94E8E50D94034021E4F50CF50DE50E40
:1001730004F50E74C4250E5011750E00E50F04F539
:100183000F749C250F5003750F00E5156005E515E9
:1001930014F515D0D0D001D006D007D083D082D0AB
:1001A300F0D0E032C0E0C007C006C0D075D000E593
:1001B3001560028014751514E510600DAE11AF12B1
:1001C30074012EF511E43FF512D0D0D006D007D03C
:1001D300E032C0E0C007C006C000C0D075D0001038
:1001E30098028035AF99BF0D028003BF0A09E52B42
:1001F3006027752C01802274ED252B401CBF610004
:10020300400BEF248540068F06EE24E0FFE52BFE2E
:1002130004F52BEE2417F8A607D0D0D000D006D0D3
:1002230007D0E032AF82C2AC8F9910990280FBD223
:10023300AC22AD82AE83AFF08D828E838FF0120835
:1002430099FC60188C820DBD00010EC007C006C06A
:1002530005120227D005D006D00780DC22AE82AF7C
:1002630083752FE8753003C007C006120806AC82F9
:1002730074302CF582120227D006D007752F6475CF
:1002830030008E828F83C007C006120806752F0ABE
:1002930075300012084CAC8274302CF582120227A0
:1002A300D006D007752F0A7530008E828F83C00762
:1002B300C006120806752F0A75300012084CAC826E
:1002C30074302CF582120227D006D007752F0A75D9
:1002D30030008E828F8312084CAE8274302EF582EA
:1002E300020227AF828F0675F00AEE842430F5826E
:1002F300C007120227D00775F00AEF84AFF07430FD
:100303002FF582020227C2AFAE11AF12D2AF90080F
:10031300C375F080C007C006120235D006D0078E21
:10032300828F831202609008CA75F08012023585AD
:100333000F821202E675823A120227850E8212029A
:10034300E69008D175F080120235851382851483F7
:100353001202609008DA75F080120235E516600B20
:100363009008E275F0801202358018E510600B905A
:1003730008E875F08012023580099008EC75F0806A
:100383001202359008F275F08002023585822F85BE
:10039300833085F0317C00EC252FFAE43530FBAF58
:1003A300318A828B838FF0120899FF6011EC241736
:1003B300F9E7B507028004758200220C80D97582A3
:1003C3000122E52B2417F876009008F575F08012CA
:1003D300038FE582601FE516600C9008FB75F080C3
:1003E30012023502052175100190092675F080125D
:1003F300023502052190092F75F08012038FE582E3
:10040300600F75100090093475F0801202350205F3
:100413002190093F75F08012038FE5826020C2AFFF
:10042300E4F511F512D2AFE4F50EF50FF50CF50D69
:10043300F51690094575F0801202350205219009E1
:100443005075F08012038FE58260061203090205DE
:100453002190095775F08012038FE582700302051E
:10046300187E007F007D00C3ED952B5017ED2417F8
:10047300F98704BC30004009ED2417F9E724C6507E
:10048300030D80E3C3ED952B400C90095B75F08061
:100493001202350205218D2EC3E52E952B503FE523
:1004A3002E2417F98704BC30004033E52E2417F9B6
:1004B300E724C640298E2F8F3090000A12082FABF5
:1004C30082AC83E52E2417F987027D00EA24D0FA53
:1004D300ED34FFFDEA2BFEED3CFF052E80BA8E13B3
:1004E3008F14C2AFE516600EC3E5119513E512959F
:1004F300145003751600D2AF90096B75F080120289
:10050300358513828514831202609008F275F0809A
:10051300120235800990097675F080120235752B29
:10052300002275300074F825304017752F007406CB
:10053300252F4007E52F04F52F80F3E53004F53030
:1005430080E322AF82BF0002800DBF0103020609D0
:10055300BF020302064622C2AFAE11AF12D2AF757D
:100563002FE87530038E828F83C007C006120806FA
:10057300AC82AD83D006D007EC24B9F582ED340804
:10058300F583E493F508752F647530008E828F83AD
:10059300C007C006120806752F0A75300012084CF2
:1005A300AC82AD83D006D007EC24B9F582ED3408D4
:1005B300F583E493F509752F0A7530008E828F83D6
:1005C300C007C006120806752F0A75300012084CC2
:1005D300AC82AD83D006D007EC24B9F582ED3408A4
:1005E300F583E493F50A752F0A7530008E828F83A5
:1005F30012084CAE82AF83EE24B9F582EF3408F5CE
:1006030083E493F50B22AF0F75F00AEF849008B9DA
:1006130093F508AF0F75F00AEF84E5F09008B993EE
:10062300FF74804FF509AF0E75F00AEF849008B997
:1006330093F50AAF0E75F00AEF84E5F09008B993CD
:10064300F50B22AE13AF14750873752F6475300064
:100653008E828F83C007C006120806752F0A753075
:100663000012084CAC82AD83D006D007EC24B9F558
:1006730082ED3408F583E493F509752F0A7530008C
:100683008E828F83C007C006120806752F0A753045
:100693000012084CAC82AD83D006D007EC24B9F528
:1006A30082ED3408F583E493F50A752F0A7530005B
:1006B3008E828F8312084CAE82AF83EE24B9F5820B
:1006C300EF3408F583E493F50B227F007E0075A0D9
:1006D300FF75B0FF8F90758921758CFC758A6675DF
:1006E3008DFD758BFD759850D28ED28AD2A9D2AA70
:1006F300D2ACD2AFD28C90097C75F080C007C00613
:100703001202359009A075F080120235120309D048
:1007130006D0078F82C007C006120546D006D00751
:10072300E52C600E752C00C007C0061203C5D00669
:10073300D007E5106013EEB50E02800DAE0EC007B4
:10074300C006120309D006D00720B221C007C00695
:10075300120525D006D00720B213E516700CE5105C
:1007630060047D0080027D018D1030B2FD20B6193A
:10077300C007C006120525D006D00720B60B0FEF21
:1007830024FD50027F0030B6FD20A725C007C00618
:10079300120525D006D00720A717C2AFE4F511F53F
:1007A30012D2AFE4F50EF50FF50CF50DF51630A7E3
:1007B300FDC2AFAC11AD12D2AFE5106023C3EC950F
:1007C30013ED9514401A7510007516019009CE7536
:1007D300F080C007C006120235120309D006D00705
:1007E300E5166009D2A4D2A5C2A6020716E51060D9
:1007F30009C2A4D2A5D2A6020716D2A4C2A5D2A624
:03080300020716D3
:1008B9003F065B4F666D7D077F6F434F554E543D35
:1008C900002054494D453D00205441524745543D6F
:1008D900002053544154453D00414C41524D005272
:1008E900554E005041555345000D0A00535441528D
:1008F900540045525220414C41524D202D20524521
:1009090053455420484F41432053455420434F55A4
:100919004E54204C4F4E20484F4E0D0A004F4B204D
:1009290052554E0D0A0053544F50004F4B20504121
:100939005553450D0A005245534554004F4B20521B
:10094900455345540D0A00535441545553005345DA
:100959005400455252204E4F204E554D4245520D9E
:100969000A004F4B205441524745543D00455252CD
:100979000D0A000D0A48452054484F4E472044456A
:100989004D2053414E205048414D202D204154388F
:10099900394335310D0A004C656E683A205354418C
:1009A90052542053544F50205245534554205354C8
:1009B90041545553207C2053455420434F554E54A0
:1009C900206E0D0A00414C41524D212044412044E2
:0E09D9004154204D554320544945550D0A0008
:100806007A10E4FBFCE58225E0F582E58333F58387
:10081600EB33FBEC33FCEB952FF5F0EC9530400613
:09082600FCABF0438201DADD2293
:06009B00E478FFF6D8FD39
:100079007900E94400601B7A009009E7780175A0CE
:1000890000E493F2A308B8000205A0D9F4DAF275E6
:02009900A0FFC6
:10082F00E582852FF0A4C582C0F08530F0A4D0F00A
:10083F0025F0C583852FF0A42583F58322E52F4569
:10084F003060467A01E52F25E0F52FE53033401271
:10085F00F530E582952FE583953040030A80E6C396
:10086F00E53013F530E52F13F52FC3E582952FF5FE
:10087F00F0E58395304005F58385F082C3E53013AD
:0A088F00F530E52F13F52FDAE12212
:1000A1007800E84400600A790175A000E4F309D8FA
:1000B100FC7800E84400600C7900900001E4F0A3B2
:0400C100D8FCD9FA94
:0D006C007581311208B5E58260030200695C
:1008990020F71430F6148883A88220F507E6A88388
:1008A90075830022E280F7E49322E0227582002218
:00000001FF
