:03000000020030CB
:03000B000202CF1F
:03001300020330B5
:0300230002028C4A
:1000300075815F75A0FF75B0FF759000E4F52078BD
:1000400030F608B841FB753C14753D007589217583
:100050008CFC758A66758DFD758BFD759850D28EFA
:10006000D28AD2A9D2AAD2ACD2AFD28C9004021238
:1000700002569004261202561201F912034B300266
:1000800005C20212011930000CE536B53F028005A9
:10009000F53F1201F920B20E1203D320B20820015D
:1000A00002B20030B2FD20B6131203D320B60D0504
:1000B0003EE53EB40303753E0030B6FD20A70C12AA
:1000C00003D320A70612010530A7FD30001EC2AFE2
:1000D000AF3AAE3BD2AFC3EF953CEE953D400DC27B
:1000E00000D2019004F11202561201F9300109D236
:1000F000A4D2A5C2A602007BA200B392A4B392A58B
:10010000D2A602007BE4C2AFF53AF53BF534F535F3
:10011000D2AFF536F537C20122E5402441F876002A
:100120009003E61201E8500D9004C620013ED20073
:1001300090048680379003EC1201E85007C20090CB
:10014000048F80289003F11201E8500812010590F5
:10015000049A80189003F71201E850051201F98003
:100160000E9003FE1201E8400A9004B01202567588
:100170004000227841AA40EA600AE61201DD400907
:10018000081A80F39004B680E37F007E00EA6023C3
:10019000E61201DD501DC39430FBEF75F00AA4FF99
:1001A000ACF0EE75F00AA42CFEEF2BFFE43EFE0847
:1001B0001A80DA8F3C8E3DC2AF30010DC3E53A950F
:1001C0003CE53B953D5002C201D2AF9004A512021E
:1001D00056AF3CAE3D120261900483808FB4300074
:1001E0004004B43A0022C3227841E4936007667069
:1001F0000608A380F5D322C322C2AFAF3AAE3BD2EA
:10020000AF90045412025612026190045B1202561F
:10021000E53712027C743A12024AE53612027C90EB
:100220000462120256AF3CAE3D12026190046B12A2
:100230000256900473200109900479200003900471
:100240007D120256900483020256C2ACF599309991
:10025000FDC299D2AC22E493600612024AA380F652
:10026000221203A4EA243012024AEB243012024A7A
:10027000EC243012024AED243002024A75F00A845E
:10028000243012024AE5F0243002024AC0D0C0E015
:1002900075D008309834C298E599B40D028003B443
:1002A0000A08E5406024D2028020FAE540B4130039
:1002B0005018EAB461004009B47B005004C3942094
:1002C000FAE5402441F8EAF60540D0E0D0D032C04B
:1002D000D0C0E075D008758CFC758A6643A00FE528
:1002E000382430F88690E5382402838004FEFDFB34
:1002F000F752A00538533803E5396002153930004C
:100300002A0534E53470020535B4E81FE535B40339
:100310001A7534007535000536E536B43C0D753672
:10032000000537E537B46403753700D0E0D0D0322C
:10033000C0D0C0E0E539700E753914300008053AB8
:10034000E53A7002053BD0E0D0D0329003DCE53EC8
:10035000600E146018AF3CAE3D1203A47AFF802CEF
:10036000C2AFAF3AAE3BD2AF1203A4801FE53775E0
:10037000F00A8493F530E5F0934480F531E5367565
:10038000F00A8493F532E5F093F53322EAB4FF04E2
:100390007473800193F530EB93F531EC93F532ED06
:1003A00093F533227A00C3EF94E8F5F0EE9403401E
:1003B00006FEAFF00A80EF7B00C3EF9464F5F0EE29
:1003C00094004006FEAFF00B80EFEF75F00A84FC5E
:1003D000ADF0227C257BFADBFEDCFA223F065B4F88
:1003E000666D7D077F6F53544152540053544F50F4
:1003F00000524553455400535441545553005345FE
:1004000054000D0A48452054484F4E472044454D5E
:100410002053414E205048414D202D204154383921
:100420004335310D0A004C656E683A2053544152F1
:10043000542053544F502052455345542053544157
:10044000545553207C2053455420434F554E54203F
:100450006E0D0A00434F554E543D002054494D4502
:100460003D00205441524745543D002053544154CF
:10047000453D00414C41524D0052554E00504155B2
:100480005345000D0A004F4B2052554E0D0A004FA8
:100490004B2050415553450D0A004F4B20524553B8
:1004A00045540D0A004F4B205441524745543D00DE
:1004B0004552520D0A00455252204E4F204E554D86
:1004C0004245520D0A0045525220414C41524D20A6
:1004D0002D20524553455420484F41432053455405
:1004E00020434F554E54204C4F4E20484F4E0D0A3E
:1004F00000414C41524D2120444120444154204D63
:0A050000554320544945550D0A00EB
:00000001FF
