:03000000020030CB
:03000B00020118D7
:030013000201796E
:1000300075815F75A0FF75B0FF759000E4F52078BD
:1000400030F608B83FFB753C14753D0075890175A5
:100050008CFC758A66D28AD2A9D2AAD2AFD28C126F
:1000600000BF20B20B1201C320B205B20030B2FDB6
:1000700020B6131201C320B60D053EE53EB40303BE
:10008000753E0030B6FD20A71A1201C320A714E464
:10009000C2AFF53AF53BF534F535D2AFF536F53765
:1000A00030A7FDA200B392A4B392A5C2AFAF3AAEFF
:1000B0003BD2AFC3EF953CEE953D92A602005F9018
:1000C00001CCE53E600E146018AF3CAE3D120194C9
:1000D0007AFF802CC2AFAF3AAE3BD2AF1201948010
:1000E0001FE53775F00A8493F530E5F0934480F509
:1000F00031E53675F00A8493F532E5F093F5332255
:10010000EAB4FF047473800193F530EB93F531EC9E
:1001100093F532ED93F53322C0D0C0E075D0087569
:100120008CFC758A6643A00FE5382430F88690E58C
:10013000382402838004FEFDFBF752A005385338B3
:1001400003E5396002153930002A0534E5347002C0
:100150000535B4E81FE535B4031A7534007535006C
:100160000536E536B43C0D7536000537E537B46421
:1001700003753700D0E0D0D032C0D0C0E0E5397090
:100180000E753914300008053AE53A7002053BD087
:10019000E0D0D0327A00C3EF94E8F5F0EE9403405B
:1001A00006FEAFF00A80EF7B00C3EF9464F5F0EE3B
:1001B00094004006FEAFF00B80EFEF75F00A84FC70
:1001C000ADF0227C257BFADBFEDCFA223F065B4F9A
:0601D000666D7D077F6FE4
:00000001FF
