:0400000002005C326C
:03000B000200DD13
:0300130002019156
:100018000000E2FBEAF2802C0000E0FBEAF080241A
:10002800E6B50202EBF62200E2B50202EBF222008C
:10003800E0B50202EBF02230F6E0A88220F5D3EA20
:10004800C6F582228B822230F6E6A88220F5D98076
:01005800CFD8
:1000B50075160075083F75093F750A3F750B3FE4D6
:1000C500F50CF50DF50EF50FF510F511F512751387
:0800D50014F514F515020059A1
:0300590002036738
:1000DD00C0E0C0F0C082C083C007C006C001C0D060
:1000ED0075D000758CFC758A66D2A0D2A1D2A2D231
:1000FD00A3E5162408F98790E51624FC4024E5169F
:10010D0075F003A49001157302012102012502016E
:10011D002902012DC2A0800AC2A18006C2A28002BE
:10012D00C2A30516E51624FC5003751600E51060F4
:10013D0039AE0CAF0D74012EF50CE43FF50DC3E592
:10014D000C94E8E50D94034021E4F50CF50DE50E56
:10015D0004F50E74C4250E5011750E00E50F04F54F
:10016D000F749C250F5003750F00E5156005E515FF
:10017D0014F515D0D0D001D006D007D083D082D0C1
:10018D00F0D0E032C0E0C007C006C0D075D000E5A9
:10019D001560028014751514E510600DAE11AF12C7
:1001AD0074012EF511E43FF512D0D0D006D007D052
:1001BD00E03275180074F82518401775170074068D
:1001CD0025174007E51704F51780F3E51804F51812
:1001DD0080E322AF82BF0002800DBF01030202A3A4
:1001ED00BF02030202E022C2AFAE11AF12D2AF7551
:1001FD0017E87518038E828F83C007C00612040C92
:10020D00AC82AD83D006D007EC2486F582ED3404A4
:10021D00F583E493F5087517647518008E828F8346
:10022D00C007C00612040C75170A751800120435A4
:10023D00AC82AD83D006D007EC2486F582ED340474
:10024D00F583E493F50975170A7518008E828F836F
:10025D00C007C00612040C75170A75180012043574
:10026D00AC82AD83D006D007EC2486F582ED340444
:10027D00F583E493F50A75170A7518008E828F833E
:10028D00120435AE82AF83EE2486F582EF3404F589
:10029D0083E493F50B22AF0F75F00AEF849004867B
:1002AD0093F508AF0F75F00AEF84E5F0900486938F
:1002BD00FF74804FF509AF0E75F00AEF8490048638
:1002CD0093F50AAF0E75F00AEF84E5F0900486936E
:1002DD00F50B22AE13AF14750873751764751800FE
:1002ED008E828F83C007C00612040C75170A75180D
:1002FD0000120435AC82AD83D006D007EC2486F510
:10030D0082ED3404F583E493F50975170A75180029
:10031D008E828F83C007C00612040C75170A7518DC
:10032D0000120435AC82AD83D006D007EC2486F5DF
:10033D0082ED3404F583E493F50A75170A751800F8
:10034D008E828F83120435AE82AF83EE2486F582C2
:10035D00EF3404F583E493F50B227F0075A0FF7550
:10036D00B0FF8F90758901758CFC758A66D28AD223
:10037D00A9D2AAD2AFD28C8F82C0071201E0D007CA
:10038D0020B219C0071201BFD00720B20FE51060CF
:10039D0005751000800375100130B2FD20B615C033
:1003AD00071201BFD00720B60B0FEF24FD50027FBF
:1003BD000030B6FD20A71FC0071201BFD00720A730
:1003CD0015C2AFE4F511F512D2AFE4F50EF50FF548
:1003DD000CF50D30A7FDE5106006C2A4D2A5800472
:1003ED00D2A4C2A5C2AFAD11AE12D2AFC3ED95135B
:0F03FD00EE95144005C2A6020384D2A602038423
:0A0486003F065B4F666D7D077F6F38
:10040C007A10E4FBFCE58225E0F582E58333F58385
:10041C00EB33FBEC33FCEB9517F5F0EC9518400641
:09042C00FCABF0438201DADD2291
:06008B00E478FFF6D8FD49
:100069007900E94400601B7A00900490780175A03A
:1000790000E493F2A308B8000205A0D9F4DAF275F6
:02008900A0FFD6
:10043500E517451860467A01E51725E0F517E51833
:10044500334012F518E5829517E583951840030AA0
:1004550080E6C3E51813F518E51713F517C3E5820C
:100465009517F5F0E58395184005F58385F082C36A
:0D047500E51813F518E51713F517DAE12265
:100091007800E84400600A790175A000E4F309D80A
:1000A100FC7800E84400600C7900900001E4F0A3C2
:0400B100D8FCD9FAA4
:0D005C00758118120482E5826003020059CC
:04048200758200225D
:00000001FF
