:0400000002005C326C
:03000B000200CE22
:0300130002013DAA
:100018000000E2FBEAF2802C0000E0FBEAF080241A
:10002800E6B50202EBF62200E2B50202EBF222008C
:10003800E0B50202EBF02230F6E0A88220F5D3EA20
:10004800C6F582228B822230F6E6A88220F5D98076
:01005800CFD8
:1000B500750F0075083F75093F750A3F750B3FE4DD
:0900C500F50CF50DF50E020059D1
:0300590002016938
:1000CE00C0E0C0F0C082C083C001C0D075D0007542
:1000DE008CFC758A66D2A0D2A1D2A2D2A3E50F243F
:1000EE0008F98790E50F24FC4024E50F75F003A472
:1000FE009001027302010E02011202011602011A90
:10010E00C2A0800AC2A18006C2A28002C2A3050FAD
:10011E00E50F24FC5003750F00E50E6005E50E1487
:10012E00F50ED0D0D001D083D082D0F0D0E032C046
:10013E00E0C007C006C0D075D000E50E6002801288
:10014E00750E14AE0CAF0D74012EF50CE43FF50DCB
:10015E00B2A4D0D0D006D007D0E03275A0FF75B0D3
:10016E00FF759000D2A5D2A6758901758CFC758A93
:10017E0066D28AD2A9D2AAD2AFD28CC2AFAE0CAFFF
:10018E000DD2AF7510E87511038E828F83C007C034
:10019E000612023AAC82AD83D006D007EC24B4F539
:1001AE0082ED3402F583E493F50875106475110041
:1001BE008E828F83C007C00612023A75100A75111F
:1001CE0000120263AC82AD83D006D007EC24B4F5E6
:1001DE0082ED3402F583E493F50975100A7511006A
:1001EE008E828F83C007C00612023A75100A7511EF
:1001FE0000120263AC82AD83D006D007EC24B4F5B6
:10020E0082ED3402F583E493F50A75100A75110038
:10021E008E828F83120263AE82AF83EE24B4F58298
:0C022E00EF3402F583E493F50B02018924
:0A02B4003F065B4F666D7D077F6F0C
:10023A007A10E4FBFCE58225E0F582E58333F58359
:10024A00EB33FBEC33FCEB9510F5F0EC9511400623
:09025A00FCABF0438201DADD2265
:06008B00E478FFF6D8FD49
:100069007900E94400601B7A009002BE780175A00E
:1000790000E493F2A308B8000205A0D9F4DAF275F6
:02008900A0FFD6
:10026300E510451160467A01E51025E0F510E5112A
:10027300334012F511E5829510E583951140030A89
:1002830080E6C3E51113F511E51013F510C3E582FC
:100293009510F5F0E58395114005F58385F082C34C
:0D02A300E51113F511E51013F510DAE12255
:100091007800E84400600A790175A000E4F309D80A
:1000A100FC7800E84400600C7900900001E4F0A3C2
:0400B100D8FCD9FAA4
:0D005C007581111202B0E5826003020059A7
:0402B0007582002231
:00000001FF
