:03000000020030CB
:03000B000200747C
:030013000200A840
:1000300075815F75A0FF75B0FF75900075303F75D5
:10004000313F75323F75333FE4F534F535F536F51C
:1000500037758901758CFC758A66D28AD2A9D2AAB5
:10006000D2AFD28CC2AFAF36AE37D2AF1200D612FB
:1000700000C280F0C0D0C0E075D008758CFC758AD5
:100080006643A00FE5342430F88690E534240283DB
:100090008004FEFDFBF752A00534533403E53560C0
:1000A000021535D0E0D0D032C0D0C0E0E535700DBB
:1000B0007535140536E53670020537B2A4D0E0D0A8
:1000C000D032900105EA93F530EB93F531EC93F5DE
:1000D00032ED93F533227A00C3EF94E8F5F0EE9415
:1000E000034006FEAFF00A80EF7B00C3EF9464F597
:1000F000F0EE94004006FEAFF00B80EFEF75F00AD3
:0F01000084FCADF0223F065B4F666D7D077F6F7D
:00000001FF
