:03000000020030CB
:03000B000200C12F
:1000300075815F75A0FF75B0FF759000E4F520F540
:1000400034F535F536F537F538758901758CFC755D
:100050008A66D2A9D2AFD28C12009F20B20B1201B5
:100060001C20B205B20030B2FD20B50B12011C20DD
:10007000B505B20130B5FD20A71612011C20A7104E
:10008000E4C2AFF534F535F536F537D2AF30A7FD1C
:10009000A200B392A4B392A5A201B392A680B99094
:1000A0000125E53775F00A8493F530E5F093448037
:1000B000F531E53675F00A8493F532E5F093F533C2
:1000C00022C0D0C0E075D008758CFC758A6643A04C
:1000D0000FE5382430F88690E5382402838004FE4A
:1000E000FDFBF752A0053853380330002A0534E5EC
:1000F0003470020535B4E81FE535B4031A753400D1
:100100007535000536E536B43C0D7536000537E526
:1001100037B46403753700D0E0D0D0327C257BFA49
:0F012000DBFEDCFA223F065B4F666D7D077F6FCB
:00000001FF
