:040000000200543274
:03000B000200CA26
:100010000000E2FBEAF2802C0000E0FBEAF0802422
:10002000E6B50202EBF62200E2B50202EBF2220094
:10003000E0B50202EBF02230F6E0A88220F5D3EA28
:10004000C6F582228B822230F6E6A88220F5D9807E
:01005000CFE0
:1000AD0075110075083F7509BF750A3F750B3FE463
:0D00BD00F50CF50DF50EF50FF510020051D4
:030051000201D3D6
:1000CA00C0E0C0F0C082C083C007C006C001C0D073
:1000DA0075D000758CFC758A66D2A0D2A1D2A2D244
:1000EA00A3E5112408F98790E51124FC4024E511C1
:1000FA0075F003A49001027302010E0201120201BB
:10010A001602011AC2A0800AC2A18006C2A28002F7
:10011A00C2A30511E51124FC5003751100E5106016
:10012A0039AE0CAF0D74012EF50CE43FF50DC3E5A5
:10013A000C94E8E50D94034021E4F50CF50DE50E69
:10014A0004F50E74C4250E5011750E00E50F04F562
:10015A000F749C250F5003750F00D0D0D001D00624
:10016A00D007D083D082D0F0D0E03275130074F873
:10017A0025134017751200740625124007E512046C
:10018A00F51280F3E51304F51380E322AF0F75F03F
:10019A000AEF8490025E93F508AF0F75F00AEF84B8
:1001AA00E5F090025E93FF74804FF509AF0E75F08B
:1001BA000AEF8490025E93F50AAF0E75F00AEF8497
:1001CA00E5F090025E93F50B227F0075A0FF75B0F3
:1001DA00FF8F90758901758CFC758A66D2A9D2AF9A
:1001EA00D28CC007120196D00720B219C00712019B
:1001FA0075D00720B20FE5106005751000800375F1
:10020A00100130B2FD20B516C007120175D00720C3
:10021A00B50CEF60047F0080027F0130B5FD20A796
:10022A0016C007120175D00720A70CE4F50EF50FCA
:10023A00F50CF50D30A7FDE5106006C2A4D2A58025
:10024A0004D2A4C2A5EF6004C2A68096D2A6809268
:0A025E003F065B4F666D7D077F6F62
:06008300E478FFF6D8FD51
:100061007900E94400601B7A00900268780175A06C
:1000710000E493F2A308B8000205A0D9F4DAF275FE
:02008100A0FFDE
:100089007800E84400600A790175A000E4F309D812
:10009900FC7800E84400600C7900900001E4F0A3CA
:0400A900D8FCD9FAAC
:0D00540075811312025AE58260030200510B
:04025A007582002287
:00000001FF
