:0300000002004CAF
:100008000000E2FBEAF2802C0000E0FBEAF080242A
:10001800E6B50202EBF62200E2B50202EBF222009C
:10002800E0B50202EBF02230F6E0A88220F5D3EA30
:10003800C6F582228B822230F6E6A88220F5D98086
:01004800CFE8
:0300A5000200490D
:0300490002012B86
:1000A800AE82AF837C007D00C3EC9EED9F50147A36
:1000B800787B001ABAFF011BEA4B70F70CBC00E80A
:1000C8000D80E5227508FF7F0085089090012CC0FF
:1000D800071200A8D007E50825E0F5080FBF0900BA
:1000E80040E7227F007E008F9090012CC007C00659
:1000F8001200A8D006D007EFF4FF0EBE100040E7AC
:10010800227FFE7E008F9090012CC007C00612004F
:10011800A8D006D007EF2FFD74014DFF0EBE0800D2
:1001280040E3227590FF1200CC1200EB1201098007
:01013800F5D1
:06007B00E478FFF6D8FD59
:100059007900E94400601B7A0090013D780175A0A0
:1000690000E493F2A308B8000205A0D9F4DAF27506
:02007900A0FFE6
:100081007800E84400600A790175A000E4F309D81A
:10009100FC7800E84400600C7900900001E4F0A3D2
:0400A100D8FCD9FAB4
:0D004C00758108120139E582600302004948
:0401390075820022A9
:00000001FF
