:0300000002004CAF
:100008000000E2FBEAF2802C0000E0FBEAF080242A
:10001800E6B50202EBF62200E2B50202EBF222009C
:10002800E0B50202EBF02230F6E0A88220F5D3EA30
:10003800C6F582228B822230F6E6A88220F5D98086
:01004800CFE8
:0300A5000200490D
:030049000200D9D9
:1000A800750A0074FB250A4027750900744925095B
:1000B8004017750800740625084007E50804F50888
:1000C80080F3E50904F50980E3E50A04F50A80D31D
:1000D8002275A0FF75A0EF1200A875A0DF1200A876
:0800E80075A0BF1200A880EC16
:06007B00E478FFF6D8FD59
:100059007900E94400601B7A009000F4780175A0EA
:1000690000E493F2A308B8000205A0D9F4DAF27506
:02007900A0FFE6
:100081007800E84400600A790175A000E4F309D81A
:10009100FC7800E84400600C7900900001E4F0A3D2
:0400A100D8FCD9FAB4
:0D004C0075810A1200F0E582600302004990
:0400F00075820022F3
:00000001FF
